{
  "_format": "hh-sol-artifact-1",
  "contractName": "AgentWork",
  "sourceName": "contracts/AgentWork.sol",
  "abi": [
    {
      "inputs": [],
      "stateMutability": "nonpayable",
      "type": "constructor"
    },
    {
      "anonymous": false,
      "inputs": [
        {
          "indexed": true,
          "internalType": "uint256",
          "name": "jobId",
          "type": "uint256"
        },
        {
          "indexed": true,
          "internalType": "address",
          "name": "employer",
          "type": "address"
        },
        {
          "indexed": false,
          "internalType": "uint256",
          "name": "budget",
          "type": "uint256"
        }
      ],
      "name": "JobCreated",
      "type": "event"
    },
    {
      "anonymous": false,
      "inputs": [
        {
          "indexed": true,
          "internalType": "uint256",
          "name": "jobId",
          "type": "uint256"
        },
        {
          "indexed": true,
          "internalType": "address",
          "name": "worker",
          "type": "address"
        },
        {
          "indexed": false,
          "internalType": "uint256",
          "name": "amount",
          "type": "uint256"
        }
      ],
      "name": "JobPaid",
      "type": "event"
    },
    {
      "anonymous": false,
      "inputs": [
        {
          "indexed": true,
          "internalType": "uint256",
          "name": "jobId",
          "type": "uint256"
        },
        {
          "indexed": true,
          "internalType": "address",
          "name": "worker",
          "type": "address"
        }
      ],
      "name": "JobTaken",
      "type": "event"
    },
    {
      "anonymous": false,
      "inputs": [
        {
          "indexed": true,
          "internalType": "address",
          "name": "agent",
          "type": "address"
        }
      ],
      "name": "MemberJoined",
      "type": "event"
    },
    {
      "anonymous": false,
      "inputs": [
        {
          "indexed": true,
          "internalType": "address",
          "name": "agent",
          "type": "address"
        },
        {
          "indexed": false,
          "internalType": "string",
          "name": "metadata",
          "type": "string"
        }
      ],
      "name": "ProfileUpdated",
      "type": "event"
    },
    {
      "anonymous": false,
      "inputs": [
        {
          "indexed": true,
          "internalType": "address",
          "name": "agent",
          "type": "address"
        },
        {
          "indexed": false,
          "internalType": "bool",
          "name": "isSafe",
          "type": "bool"
        }
      ],
      "name": "SecurityVerified",
      "type": "event"
    },
    {
      "inputs": [
        {
          "internalType": "uint256",
          "name": "_jobId",
          "type": "uint256"
        }
      ],
      "name": "acceptJob",
      "outputs": [],
      "stateMutability": "nonpayable",
      "type": "function"
    },
    {
      "inputs": [
        {
          "internalType": "address",
          "name": "",
          "type": "address"
        }
      ],
      "name": "agents",
      "outputs": [
        {
          "internalType": "bool",
          "name": "isMember",
          "type": "bool"
        },
        {
          "internalType": "bool",
          "name": "isVerifiedSafe",
          "type": "bool"
        },
        {
          "internalType": "string",
          "name": "metadata",
          "type": "string"
        },
        {
          "internalType": "uint256",
          "name": "reputation",
          "type": "uint256"
        },
        {
          "internalType": "uint256",
          "name": "jobsCompleted",
          "type": "uint256"
        },
        {
          "internalType": "uint256",
          "name": "totalEarned",
          "type": "uint256"
        }
      ],
      "stateMutability": "view",
      "type": "function"
    },
    {
      "inputs": [],
      "name": "entryFee",
      "outputs": [
        {
          "internalType": "uint256",
          "name": "",
          "type": "uint256"
        }
      ],
      "stateMutability": "view",
      "type": "function"
    },
    {
      "inputs": [
        {
          "internalType": "uint256",
          "name": "",
          "type": "uint256"
        }
      ],
      "name": "jobs",
      "outputs": [
        {
          "internalType": "uint256",
          "name": "id",
          "type": "uint256"
        },
        {
          "internalType": "address",
          "name": "employer",
          "type": "address"
        },
        {
          "internalType": "address",
          "name": "worker",
          "type": "address"
        },
        {
          "internalType": "uint256",
          "name": "budget",
          "type": "uint256"
        },
        {
          "internalType": "string",
          "name": "description",
          "type": "string"
        },
        {
          "internalType": "bool",
          "name": "isCompleted",
          "type": "bool"
        },
        {
          "internalType": "bool",
          "name": "isPaid",
          "type": "bool"
        },
        {
          "internalType": "uint256",
          "name": "createdAt",
          "type": "uint256"
        }
      ],
      "stateMutability": "view",
      "type": "function"
    },
    {
      "inputs": [
        {
          "internalType": "string",
          "name": "_metadata",
          "type": "string"
        }
      ],
      "name": "joinPlatform",
      "outputs": [],
      "stateMutability": "payable",
      "type": "function"
    },
    {
      "inputs": [],
      "name": "nextJobId",
      "outputs": [
        {
          "internalType": "uint256",
          "name": "",
          "type": "uint256"
        }
      ],
      "stateMutability": "view",
      "type": "function"
    },
    {
      "inputs": [],
      "name": "owner",
      "outputs": [
        {
          "internalType": "address",
          "name": "",
          "type": "address"
        }
      ],
      "stateMutability": "view",
      "type": "function"
    },
    {
      "inputs": [],
      "name": "platformFeeBps",
      "outputs": [
        {
          "internalType": "uint256",
          "name": "",
          "type": "uint256"
        }
      ],
      "stateMutability": "view",
      "type": "function"
    },
    {
      "inputs": [
        {
          "internalType": "string",
          "name": "_description",
          "type": "string"
        }
      ],
      "name": "postJob",
      "outputs": [],
      "stateMutability": "payable",
      "type": "function"
    },
    {
      "inputs": [
        {
          "internalType": "uint256",
          "name": "_jobId",
          "type": "uint256"
        }
      ],
      "name": "releasePayment",
      "outputs": [],
      "stateMutability": "nonpayable",
      "type": "function"
    },
    {
      "inputs": [
        {
          "internalType": "uint256",
          "name": "_newFee",
          "type": "uint256"
        }
      ],
      "name": "setEntryFee",
      "outputs": [],
      "stateMutability": "nonpayable",
      "type": "function"
    },
    {
      "inputs": [
        {
          "internalType": "address",
          "name": "_agent",
          "type": "address"
        },
        {
          "internalType": "bool",
          "name": "_isSafe",
          "type": "bool"
        }
      ],
      "name": "setSecurityStatus",
      "outputs": [],
      "stateMutability": "nonpayable",
      "type": "function"
    },
    {
      "inputs": [
        {
          "internalType": "string",
          "name": "_metadata",
          "type": "string"
        }
      ],
      "name": "updateProfile",
      "outputs": [],
      "stateMutability": "nonpayable",
      "type": "function"
    },
    {
      "inputs": [],
      "name": "withdrawFees",
      "outputs": [],
      "stateMutability": "nonpayable",
      "type": "function"
    }
  ],
  "bytecode": "0x608060405260006001556101f460025534801561001b57600080fd5b50336000806101000a81548173ffffffffffffffffffffffffffffffffffffffff021916908373ffffffffffffffffffffffffffffffffffffffff1602179055506124518061006b6000396000f3fe6080604052600436106100dc5760003560e01c806388685cd91161007f578063b0c2aa5e11610059578063b0c2aa5e14610270578063d251e28e1461029b578063eb770d0c146102c4578063fd66091e146102ed576100dc565b806388685cd9146102005780638b7d3e64146102295780638da5cb5b14610245576100dc565b806322dcd13e116100bb57806322dcd13e1461017957806327a6d1d7146101a4578063476343ee146101c057806363b2f3c9146101d7576100dc565b80629299e3146100e1578063072ea61c1461010a578063180aedf314610135575b600080fd5b3480156100ed57600080fd5b5061010860048036038101906101039190611528565b61032f565b005b34801561011657600080fd5b5061011f610464565b60405161012c919061158e565b60405180910390f35b34801561014157600080fd5b5061015c600480360381019061015791906115d5565b61046a565b6040516101709897969594939291906116ee565b60405180910390f35b34801561018557600080fd5b5061018e610594565b60405161019b919061158e565b60405180910390f35b6101be60048036038101906101b99190611528565b61059a565b005b3480156101cc57600080fd5b506101d5610817565b005b3480156101e357600080fd5b506101fe60048036038101906101f991906115d5565b61090e565b005b34801561020c57600080fd5b50610227600480360381019061022291906115d5565b610bf7565b005b610243600480360381019061023e9190611528565b610f93565b005b34801561025157600080fd5b5061025a6111df565b6040516102679190611773565b60405180910390f35b34801561027c57600080fd5b50610285611203565b604051610292919061158e565b60405180910390f35b3480156102a757600080fd5b506102c260048036038101906102bd91906117e6565b611209565b005b3480156102d057600080fd5b506102eb60048036038101906102e691906115d5565b611343565b005b3480156102f957600080fd5b50610314600480360381019061030f9190611826565b6113db565b60405161032696959493929190611853565b60405180910390f35b600360003373ffffffffffffffffffffffffffffffffffffffff1673ffffffffffffffffffffffffffffffffffffffff16815260200190815260200160002060000160009054906101000a900460ff166103be576040517f08c379a00000000000000000000000000000000000000000000000000000000081526004016103b590611907565b60405180910390fd5b8181600360003373ffffffffffffffffffffffffffffffffffffffff1673ffffffffffffffffffffffffffffffffffffffff168152602001908152602001600020600101918261040f929190611b6d565b503373ffffffffffffffffffffffffffffffffffffffff167fdd635a4cd84864e37e4479dbfc2ec667acfa473c83c8422a8ac9d9d07599b01c8383604051610458929190611c79565b60405180910390a25050565b60015481565b60046020528060005260406000206000915090508060000154908060010160009054906101000a900473ffffffffffffffffffffffffffffffffffffffff16908060020160009054906101000a900473ffffffffffffffffffffffffffffffffffffffff16908060030154908060040180546104e590611990565b80601f016020809104026020016040519081016040528092919081815260200182805461051190611990565b801561055e5780601f106105335761010080835404028352916020019161055e565b820191906000526020600020905b81548152906001019060200180831161054157829003601f168201915b5050505050908060050160009054906101000a900460ff16908060050160019054906101000a900460ff16908060060154905088565b60025481565b600034116105dd576040517f08c379a00000000000000000000000000000000000000000000000000000000081526004016105d490611ce9565b60405180910390fd5b60405180610100016040528060055481526020013373ffffffffffffffffffffffffffffffffffffffff168152602001600073ffffffffffffffffffffffffffffffffffffffff16815260200134815260200183838080601f016020809104026020016040519081016040528093929190818152602001838380828437600081840152601f19601f820116905080830192505050505050508152602001600015158152602001600015158152602001428152506004600060055481526020019081526020016000206000820151816000015560208201518160010160006101000a81548173ffffffffffffffffffffffffffffffffffffffff021916908373ffffffffffffffffffffffffffffffffffffffff16021790555060408201518160020160006101000a81548173ffffffffffffffffffffffffffffffffffffffff021916908373ffffffffffffffffffffffffffffffffffffffff16021790555060608201518160030155608082015181600401908161075c9190611d09565b5060a08201518160050160006101000a81548160ff02191690831515021790555060c08201518160050160016101000a81548160ff02191690831515021790555060e082015181600601559050503373ffffffffffffffffffffffffffffffffffffffff166005547f8678ba2d99dba901dafc51009f8d402d37a5a0275752cf0e263b827aeca906f2346040516107f3919061158e565b60405180910390a36005600081548092919061080e90611e0a565b91905055505050565b60008054906101000a900473ffffffffffffffffffffffffffffffffffffffff1673ffffffffffffffffffffffffffffffffffffffff163373ffffffffffffffffffffffffffffffffffffffff16146108a5576040517f08c379a000000000000000000000000000000000000000000000000000000000815260040161089c90611e9e565b60405180910390fd5b60008054906101000a900473ffffffffffffffffffffffffffffffffffffffff1673ffffffffffffffffffffffffffffffffffffffff166108fc479081150290604051600060405180830381858888f1935050505015801561090b573d6000803e3d6000fd5b50565b6000600460008381526020019081526020016000209050600073ffffffffffffffffffffffffffffffffffffffff168160010160009054906101000a900473ffffffffffffffffffffffffffffffffffffffff1673ffffffffffffffffffffffffffffffffffffffff16036109b8576040517f08c379a00000000000000000000000000000000000000000000000000000000081526004016109af90611f0a565b60405180910390fd5b600073ffffffffffffffffffffffffffffffffffffffff168160020160009054906101000a900473ffffffffffffffffffffffffffffffffffffffff1673ffffffffffffffffffffffffffffffffffffffff1614610a4b576040517f08c379a0000000000000000000000000000000000000000000000000000000008152600401610a4290611f76565b60405180910390fd5b600360003373ffffffffffffffffffffffffffffffffffffffff1673ffffffffffffffffffffffffffffffffffffffff16815260200190815260200160002060000160009054906101000a900460ff16610ada576040517f08c379a0000000000000000000000000000000000000000000000000000000008152600401610ad190611fe2565b60405180910390fd5b8060010160009054906101000a900473ffffffffffffffffffffffffffffffffffffffff1673ffffffffffffffffffffffffffffffffffffffff163373ffffffffffffffffffffffffffffffffffffffff1603610b6c576040517f08c379a0000000000000000000000000000000000000000000000000000000008152600401610b639061204e565b60405180910390fd5b338160020160006101000a81548173ffffffffffffffffffffffffffffffffffffffff021916908373ffffffffffffffffffffffffffffffffffffffff1602179055503373ffffffffffffffffffffffffffffffffffffffff16827f63d05f037a34bfd9732c85be51fc52a421f621694ced20c350480d44d6a3b3fa60405160405180910390a35050565b60006004600083815260200190815260200160002090508060010160009054906101000a900473ffffffffffffffffffffffffffffffffffffffff1673ffffffffffffffffffffffffffffffffffffffff163373ffffffffffffffffffffffffffffffffffffffff1614610ca0576040517f08c379a0000000000000000000000000000000000000000000000000000000008152600401610c97906120ba565b60405180910390fd5b600073ffffffffffffffffffffffffffffffffffffffff168160020160009054906101000a900473ffffffffffffffffffffffffffffffffffffffff1673ffffffffffffffffffffffffffffffffffffffff1603610d33576040517f08c379a0000000000000000000000000000000000000000000000000000000008152600401610d2a90612126565b60405180910390fd5b8060050160019054906101000a900460ff1615610d85576040517f08c379a0000000000000000000000000000000000000000000000000000000008152600401610d7c90612192565b60405180910390fd5b60018160050160006101000a81548160ff02191690831515021790555060018160050160016101000a81548160ff02191690831515021790555060006127106002548360030154610dd691906121b2565b610de09190612223565b90506000818360030154610df49190612254565b90506000600360008560020160009054906101000a900473ffffffffffffffffffffffffffffffffffffffff1673ffffffffffffffffffffffffffffffffffffffff1673ffffffffffffffffffffffffffffffffffffffff1681526020019081526020016000209050806003016000815480929190610e7290611e0a565b9190505550600a816002016000828254610e8c9190612288565b9250508190555081816004016000828254610ea79190612288565b925050819055508360020160009054906101000a900473ffffffffffffffffffffffffffffffffffffffff1673ffffffffffffffffffffffffffffffffffffffff166108fc839081150290604051600060405180830381858888f19350505050158015610f18573d6000803e3d6000fd5b508360020160009054906101000a900473ffffffffffffffffffffffffffffffffffffffff1673ffffffffffffffffffffffffffffffffffffffff16857f9c9c7be79d0a80d50ba29cc761ba8a73fe24080e7acf62b83bf2dbf0c5096b0c84604051610f84919061158e565b60405180910390a35050505050565b600154341015610fd8576040517f08c379a0000000000000000000000000000000000000000000000000000000008152600401610fcf90612308565b60405180910390fd5b600360003373ffffffffffffffffffffffffffffffffffffffff1673ffffffffffffffffffffffffffffffffffffffff16815260200190815260200160002060000160009054906101000a900460ff1615611068576040517f08c379a000000000000000000000000000000000000000000000000000000000815260040161105f90612374565b60405180910390fd5b6040518060c0016040528060011515815260200160001515815260200183838080601f016020809104026020016040519081016040528093929190818152602001838380828437600081840152601f19601f82011690508083019250505050505050815260200160008152602001600081526020016000815250600360003373ffffffffffffffffffffffffffffffffffffffff1673ffffffffffffffffffffffffffffffffffffffff16815260200190815260200160002060008201518160000160006101000a81548160ff02191690831515021790555060208201518160000160016101000a81548160ff02191690831515021790555060408201518160010190816111769190611d09565b50606082015181600201556080820151816003015560a082015181600401559050503373ffffffffffffffffffffffffffffffffffffffff167f0abf3b3f643594d958297062a019458e27d7766629590ac621aa1000fa1298ab60405160405180910390a25050565b60008054906101000a900473ffffffffffffffffffffffffffffffffffffffff1681565b60055481565b60008054906101000a900473ffffffffffffffffffffffffffffffffffffffff1673ffffffffffffffffffffffffffffffffffffffff163373ffffffffffffffffffffffffffffffffffffffff1614611297576040517f08c379a000000000000000000000000000000000000000000000000000000000815260040161128e906123e0565b60405180910390fd5b80600360008473ffffffffffffffffffffffffffffffffffffffff1673ffffffffffffffffffffffffffffffffffffffff16815260200190815260200160002060000160016101000a81548160ff0219169083151502179055508173ffffffffffffffffffffffffffffffffffffffff167fb85fa19d715ddf43613f0f8c7067475a5993d059cb1cc980e2bf4d46a4187e13826040516113379190612400565b60405180910390a25050565b60008054906101000a900473ffffffffffffffffffffffffffffffffffffffff1673ffffffffffffffffffffffffffffffffffffffff163373ffffffffffffffffffffffffffffffffffffffff16146113d1576040517f08c379a00000000000000000000000000000000000000000000000000000000081526004016113c890611e9e565b60405180910390fd5b8060018190555050565b60036020528060005260406000206000915090508060000160009054906101000a900460ff16908060000160019054906101000a900460ff169080600101805461142490611990565b80601f016020809104026020016040519081016040528092919081815260200182805461145090611990565b801561149d5780601f106114725761010080835404028352916020019161149d565b820191906000526020600020905b81548152906001019060200180831161148057829003601f168201915b5050505050908060020154908060030154908060040154905086565b600080fd5b600080fd5b600080fd5b600080fd5b600080fd5b60008083601f8401126114e8576114e76114c3565b5b8235905067ffffffffffffffff811115611505576115046114c8565b5b602083019150836001820283011115611521576115206114cd565b5b9250929050565b6000806020838503121561153f5761153e6114b9565b5b600083013567ffffffffffffffff81111561155d5761155c6114be565b5b611569858286016114d2565b92509250509250929050565b6000819050919050565b61158881611575565b82525050565b60006020820190506115a3600083018461157f565b92915050565b6115b281611575565b81146115bd57600080fd5b50565b6000813590506115cf816115a9565b92915050565b6000602082840312156115eb576115ea6114b9565b5b60006115f9848285016115c0565b91505092915050565b600073ffffffffffffffffffffffffffffffffffffffff82169050919050565b600061162d82611602565b9050919050565b61163d81611622565b82525050565b600081519050919050565b600082825260208201905092915050565b60005b8381101561167d578082015181840152602081019050611662565b60008484015250505050565b6000601f19601f8301169050919050565b60006116a582611643565b6116af818561164e565b93506116bf81856020860161165f565b6116c881611689565b840191505092915050565b60008115159050919050565b6116e8816116d3565b82525050565b600061010082019050611704600083018b61157f565b611711602083018a611634565b61171e6040830189611634565b61172b606083018861157f565b818103608083015261173d818761169a565b905061174c60a08301866116df565b61175960c08301856116df565b61176660e083018461157f565b9998505050505050505050565b60006020820190506117886000830184611634565b92915050565b61179781611622565b81146117a257600080fd5b50565b6000813590506117b48161178e565b92915050565b6117c3816116d3565b81146117ce57600080fd5b50565b6000813590506117e0816117ba565b92915050565b600080604083850312156117fd576117fc6114b9565b5b600061180b858286016117a5565b925050602061181c858286016117d1565b9150509250929050565b60006020828403121561183c5761183b6114b9565b5b600061184a848285016117a5565b91505092915050565b600060c08201905061186860008301896116df565b61187560208301886116df565b8181036040830152611887818761169a565b9050611896606083018661157f565b6118a3608083018561157f565b6118b060a083018461157f565b979650505050505050565b7f4e6f742061206d656d6265720000000000000000000000000000000000000000600082015250565b60006118f1600c8361164e565b91506118fc826118bb565b602082019050919050565b60006020820190508181036000830152611920816118e4565b9050919050565b600082905092915050565b7f4e487b7100000000000000000000000000000000000000000000000000000000600052604160045260246000fd5b7f4e487b7100000000000000000000000000000000000000000000000000000000600052602260045260246000fd5b600060028204905060018216806119a857607f821691505b6020821081036119bb576119ba611961565b5b50919050565b60008190508160005260206000209050919050565b60006020601f8301049050919050565b600082821b905092915050565b600060088302611a237fffffffffffffffffffffffffffffffffffffffffffffffffffffffffffffffff826119e6565b611a2d86836119e6565b95508019841693508086168417925050509392505050565b6000819050919050565b6000611a6a611a65611a6084611575565b611a45565b611575565b9050919050565b6000819050919050565b611a8483611a4f565b611a98611a9082611a71565b8484546119f3565b825550505050565b600090565b611aad611aa0565b611ab8818484611a7b565b505050565b5b81811015611adc57611ad1600082611aa5565b600181019050611abe565b5050565b601f821115611b2157611af2816119c1565b611afb846119d6565b81016020851015611b0a578190505b611b1e611b16856119d6565b830182611abd565b50505b505050565b600082821c905092915050565b6000611b4460001984600802611b26565b1980831691505092915050565b6000611b5d8383611b33565b9150826002028217905092915050565b611b778383611927565b67ffffffffffffffff811115611b9057611b8f611932565b5b611b9a8254611990565b611ba5828285611ae0565b6000601f831160018114611bd45760008415611bc2578287013590505b611bcc8582611b51565b865550611c34565b601f198416611be2866119c1565b60005b82811015611c0a57848901358255600182019150602085019450602081019050611be5565b86831015611c275784890135611c23601f891682611b33565b8355505b6001600288020188555050505b50505050505050565b82818337600083830152505050565b6000611c58838561164e565b9350611c65838584611c3d565b611c6e83611689565b840190509392505050565b60006020820190508181036000830152611c94818486611c4c565b90509392505050565b7f427564676574206d757374206265203e20300000000000000000000000000000600082015250565b6000611cd360128361164e565b9150611cde82611c9d565b602082019050919050565b60006020820190508181036000830152611d0281611cc6565b9050919050565b611d1282611643565b67ffffffffffffffff811115611d2b57611d2a611932565b5b611d358254611990565b611d40828285611ae0565b600060209050601f831160018114611d735760008415611d61578287015190505b611d6b8582611b51565b865550611dd3565b601f198416611d81866119c1565b60005b82811015611da957848901518255600182019150602085019450602081019050611d84565b86831015611dc65784890151611dc2601f891682611b33565b8355505b6001600288020188555050505b505050505050565b7f4e487b7100000000000000000000000000000000000000000000000000000000600052601160045260246000fd5b6000611e1582611575565b91507fffffffffffffffffffffffffffffffffffffffffffffffffffffffffffffffff8203611e4757611e46611ddb565b5b600182019050919050565b7f4f6e6c79206f776e657200000000000000000000000000000000000000000000600082015250565b6000611e88600a8361164e565b9150611e9382611e52565b602082019050919050565b60006020820190508181036000830152611eb781611e7b565b9050919050565b7f4a6f6220646f6573206e6f742065786973740000000000000000000000000000600082015250565b6000611ef460128361164e565b9150611eff82611ebe565b602082019050919050565b60006020820190508181036000830152611f2381611ee7565b9050919050565b7f4a6f6220616c72656164792074616b656e000000000000000000000000000000600082015250565b6000611f6060118361164e565b9150611f6b82611f2a565b602082019050919050565b60006020820190508181036000830152611f8f81611f53565b9050919050565b7f4d7573742062652061206d656d62657220746f20776f726b0000000000000000600082015250565b6000611fcc60188361164e565b9150611fd782611f96565b602082019050919050565b60006020820190508181036000830152611ffb81611fbf565b9050919050565b7f43616e6e6f7420616363657074206f776e206a6f620000000000000000000000600082015250565b600061203860158361164e565b915061204382612002565b602082019050919050565b600060208201905081810360008301526120678161202b565b9050919050565b7f4f6e6c7920656d706c6f7965722063616e2072656c656173652066756e647300600082015250565b60006120a4601f8361164e565b91506120af8261206e565b602082019050919050565b600060208201905081810360008301526120d381612097565b9050919050565b7f4e6f20776f726b65722061737369676e65640000000000000000000000000000600082015250565b600061211060128361164e565b915061211b826120da565b602082019050919050565b6000602082019050818103600083015261213f81612103565b9050919050565b7f416c726561647920706169640000000000000000000000000000000000000000600082015250565b600061217c600c8361164e565b915061218782612146565b602082019050919050565b600060208201905081810360008301526121ab8161216f565b9050919050565b60006121bd82611575565b91506121c883611575565b92508282026121d681611575565b915082820484148315176121ed576121ec611ddb565b5b5092915050565b7f4e487b7100000000000000000000000000000000000000000000000000000000600052601260045260246000fd5b600061222e82611575565b915061223983611575565b925082612249576122486121f4565b5b828204905092915050565b600061225f82611575565b915061226a83611575565b925082820390508181111561228257612281611ddb565b5b92915050565b600061229382611575565b915061229e83611575565b92508282019050808211156122b6576122b5611ddb565b5b92915050565b7f496e73756666696369656e742045544820746f206a6f696e0000000000000000600082015250565b60006122f260188361164e565b91506122fd826122bc565b602082019050919050565b60006020820190508181036000830152612321816122e5565b9050919050565b7f416c72656164792061206d656d62657200000000000000000000000000000000600082015250565b600061235e60108361164e565b915061236982612328565b602082019050919050565b6000602082019050818103600083015261238d81612351565b9050919050565b7f4f6e6c79206f776e657220286f722078343032206f7261636c65290000000000600082015250565b60006123ca601b8361164e565b91506123d582612394565b602082019050919050565b600060208201905081810360008301526123f9816123bd565b9050919050565b600060208201905061241560008301846116df565b9291505056fea2646970667358221220db428ef2ffa8c7c95d3f20a50a4a72e3e99b3418e65f27e05e9693df848b513864736f6c63430008130033",
  "linkReferences": {},
  "deployedLinkReferences": {}
}